:100000000C942C010C9449010C9449010C94490165
:100010000C9449010C9449010C9449010C944B0136
:100020000C9449010C9449010C9449010C94490128
:100030000C9449010C9449010C9449010C946403FB
:100040000C9449010C9449010C9449010C94490108
:100050000C9449010C9449010C9449010C944901F8
:100060000C9449010C9449010C9449010C944901E8
:100070000C9449010C9449010C94490100000000C2
:100080000000005F00000003000300143E143E1453
:10009000242A7F2A124333086661364955225000CC
:1000A00005030000001C2241000041221C0014082E
:1000B0003E081408083E08080050300000080808F0
:1000C0000808006060000020100804023E51494505
:1000D0003E0004027F0042615149462241494936AF
:1000E0001814127F1027454545393E4949493201C8
:1000F000017109073649494936264949493E0036C2
:100100003600000056360000081422410014141472
:100110001414004122140802015109063E415955A8
:100120005E7E0909097E7F494949363E41414122A7
:100130007F4141413E7F494949417F090909013ECB
:100140004141493A7F0808087F00417F4100304023
:1001500040403F7F081422417F404040407F020CD6
:10016000027F7F0204087F3E4141413E7F09090929
:10017000061E2121215E7F09090976264949493257
:1001800001017F01013F4040403F1F2040201F7F71
:100190002010207F41221C2241070870080761516E
:1001A000494543007F41000002040810200000413F
:1001B0007F0004020102044040404040000102046C
:1001C0000020545454787F444444383844444444D0
:1001D000384444447F385454541804047E050508B8
:1001E0005454543C7F0804047800447D400020406F
:1001F000443D007F1028440000417F40007C04788B
:1002000004787C0804047838444444387C1414147A
:1002100008081414147C007C080404485454542026
:1002200004043F44443C4040207C1C2040201C3CB3
:100230004030403C44281028440C5050503C44640A
:10024000544C44000836414100007F0000414136D3
:10025000080002010204020011241FBECFEFD0E10A
:10026000DEBFCDBF11E0A0E0B1E0E6E7FFE002C0F5
:1002700005900D92A834B107D9F711E0A8E4B1E0D8
:1002800001C01D92AE34B107E1F70E94BD010C948C
:10029000B9070C9400001F920F920FB60F92112411
:1002A0002F933F934F938F939F93AF93BF93EF936E
:1002B000FF9389B1282F30E023703070E0914C011A
:1002C000F0914D01D901AA0FBB1FA05CBE4FEE0FEC
:1002D000FF1FE05CFE4F0D90BC91A02D80819181AD
:1002E000A81BB90B4FEFAF3FB407A9F08FEFAF3F9B
:1002F000B80709F024F4AD5FBF4FB1F406C0A130D8
:10030000B10519F0139781F406C0809148019091CE
:100310004901039605C080914801909149010397D6
:10032000909349018093480180914801909149013F
:1003300097FF04C010924901109248018091480132
:10034000909149018853914034F087E391E0909374
:1003500049018093480130934D0120934C01FF9156
:10036000EF91BF91AF919F918F914F913F912F91BD
:100370000F900FBE0F901F9018950F931F93DF9350
:10038000CF93CDB7DEB728970FB6F894DEBF0FBE78
:10039000CDBF0E94AC0780E00E9429058AB18C7F06
:1003A0008AB98BB183608BB9809181008160809321
:1003B000810080916F00816080936F0083B7817F9F
:1003C000846083BF89B190E08370907090934D01F9
:1003D00080934C0183E08093730080916800886073
:1003E00080936800E0914801F091490180914801B3
:1003F000909149011A82198220EF30E0422F3C830C
:100400002B836E2FFE83ED83099698878F83298136
:100410003A815C817E81988500E61AEE0E94A705EC
:1004200078948895FECF2F923F924F925F926F9271
:100430007F928F929F92AF92BF92CF92DF92EF9274
:10044000FF920F931F93DF93CF93CDB7DEB76A97D9
:100450000FB6F894DEBF0FBECDBF29873A874B8712
:100460005C876D877E878F87988BA98ABA8ACB8AAB
:10047000DC8AED8AFE8A0F8B188F69847A84CD849A
:10048000DE844B845C848F8598899A8F898F8B88D2
:100490009C882F88388CA988BA88ED88FE888614B5
:1004A000970448F02C143D0430F04A145B0418F013
:1004B0008E159F0538F5482D9C8A8B8A388E2F8A99
:1004C0002A2DBA8AA98A6E2DFE8AED8A3A895C891C
:1004D0007E89822D988D00E010E00E94A705262DD0
:1004E0007A8669866C2DDE86CD86442D5C864B86A9
:1004F000898D9A8D988B8F873A855C857E85898DCD
:100500009889C5C06A147B0481F1A614B704A8F4C5
:100510002A2DBA82A982C3010197482F9C838B831D
:100520006E2DFE82ED8238862F823A815C817E813B
:10053000822D988500E010E016C0262D7A8269820F
:10054000C5010197482F9C838B836C2DDE82CD8261
:10055000898D9A8D98878F833A815C817E81898D80
:10056000988500E61AEE0E94A7054814590481F107
:1005700048145904A8F4C2010196282F9A8389834C
:10058000482D9C828B826E2DFE82ED8238862F82D2
:100590003A815C817E81822D988500E010E016C052
:1005A000C4010196282F9A838983442D5C824B8253
:1005B0006C2DDE82CD82898D9A8D98878F833A81CA
:1005C0005C817E81898D988500E61AEE0E94A705E0
:1005D000CE14DF0461F1EC14FD04A0F42A2DBA82DC
:1005E000A982482D9C828B826E2DFE82ED82C601EF
:1005F000019798878F833A815C817E81988500E09E
:1006000010E013C0262D7A826982442D5C824B82D1
:100610006C2DDE82CD82C701019798878F833A8146
:100620005C817E81988500E61AEE0E94A705898D7F
:100630009A8D8215930579F182159305A0F42A2DE0
:10064000BA82A982482D9C828B820196682F9E8354
:100650008D8338862F823A815C817E81822D9885B8
:1006600000E010E016C0262D7A826982442D5C825B
:100670004B82C1010196682F9E838D83898D9A8D4F
:1006800098878F833A815C817E81898D988500E689
:100690001AEE0E94A7056A960FB6F894DEBF0FBE49
:1006A000CDBFCF91DF911F910F91FF90EF90DF9021
:1006B000CF90BF90AF909F908F907F906F905F9002
:1006C0004F903F902F9008951F920F920FB60F9268
:1006D0001124AF92BF92CF92DF92EF92FF920F93CD
:1006E0001F932F933F934F935F936F937F938F93BA
:1006F0009F93AF93BF93EF93FF93DF93CF93CDB7C8
:10070000DEB76097DEBFCDBF20914801309149012F
:1007100080914801909149011A821982E0EFF0E03E
:100720004E2FFC83EB83622F3E832D83099698879F
:100730008F8320914A0130914B011A861986CE2E63
:10074000FC87EB87E22E3E872D87275F3F4F022FE6
:10075000388B2F8729813A815C817E819885A98495
:10076000BA84DC84FE8418890E94130280914801B7
:100770009091490190934B0180934A016096DEBFAE
:10078000CDBFCF91DF91FF91EF91BF91AF919F913D
:100790008F917F916F915F914F913F912F911F9119
:1007A0000F91FF90EF90DF90CF90BF90AF900F90A0
:1007B0000FBE0F901F901895129888EE93E02CE2D0
:1007C00031E0F9013197F1F70197D9F7129A88EEE4
:1007D00093E02CE231E0F9013197F1F70197D9F775
:1007E000149A139A159A10981198169A149888E2E8
:1007F00088B91398139A149A149881E188B91398B8
:10080000139A149A88E592E02CE231E0F9013197CD
:10081000F1F70197D9F714988BEC88B91398139ACC
:10082000149A81E088B91398139A149880EC88B9C7
:100830001398139A149A86E288B91398139A88E049
:1008400088B91398139A149881EC88B91398139A5D
:10085000149A80E188B91398139A149885EC88B992
:100860001398139A149A85E388B91398139A8EE310
:1008700088B91398139A149886E388B91398139A31
:10088000149A88E488B91398139A149880EB88B95D
:100890001398139A149A8AE488B91398139A14989F
:1008A00081EB88B91398139A149A18B81398139A6D
:1008B0008BE188B91398139A149886EB88B913982A
:1008C000139A149AEEE2F1E0819188B91398139A81
:1008D00041E0E233F407C1F7149887EC88B9139824
:1008E000139A149A85EB88B91398139A149886EF83
:1008F00088B91398139A149AEAE2F1E0819188B9C1
:100900001398139A81E0ED32F807C1F7149882EF3B
:1009100088B91398139A149A18B81398139A1498BC
:1009200086E288B91398139A149A81E088B91398CB
:10093000139A14988AE388B91398139A149A85E540
:1009400088B91398139A149880EE88B91398139A5B
:10095000149AEAE1F1E0819188B91398139A41E081
:10096000E932F407C1F7149881EE88B91398139A05
:10097000149AEAE0F1E0819188B91398139A81E022
:10098000E931F807C1F714988AE288B91398139AE5
:10099000149AE5E0F1E0819188B91398139A41E047
:1009A000E930F407C1F714988BE288B91398139AC9
:1009B000149AE0E0F1E0819188B91398139A81E0EC
:1009C000E430F807C1F7149884E388B91398139AB0
:1009D000149A149884EB88B91398139A149A18B837
:1009E0001398139A149887EB88B91398139A149A4A
:1009F00087E088B91398139A14988CE288B91398F1
:100A0000139A149A20E030E010C018B81398139A83
:100A100018B81398139A019641E080349407A9F707
:100A20002F5F3F4F203F310519F080E090E0EDCF80
:100A3000149889E288B91398139A149A84EF91E074
:100A40002CE231E0F9013197F1F70197D9F7119ACA
:100A50000895982F80933701149886E388B91398E6
:100A6000139A149A992371F480EF90E090933401D3
:100A70008093330180E491E09093360180933501B7
:100A800088E42FC0913071F480E491E090933401B8
:100A90008093330180EF90E090933601809335018D
:100AA00088EE1FC0923071F480EF90E09093340193
:100AB0008093330180E491E0909336018093350177
:100AC00088E80FC0933081F480E491E09093340182
:100AD0008093330180EF90E090933601809335014D
:100AE00088E288B91398139A14988AE288B91398FF
:100AF000139A149A18B81398139A18B81398139A4B
:100B00008091330190913401019798B9019613981F
:100B1000139A815088B91398139A14988BE288B964
:100B20001398139A149A18B81398139A18B813981C
:100B3000139A8091350190913601019798B90196E9
:100B40001398139A815088B91398139A0895EF92C5
:100B5000FF920F931F93DF93CF93CDB7DEB7289704
:100B60000FB6F894DEBF0FBECDBFF22F2983E32F5F
:100B70003A834B835C83362F6D83272F7E838F834D
:100B800098877801AB81BC81062F172F6F817885FC
:100B900014988AE288B91398139A149AE8B91398AA
:100BA000139AF8B91398139AB8B91398139AA8B965
:100BB0001398139A14988BE288B91398139A149A7D
:100BC00028B91398139A38B91398139A78B91398C7
:100BD000139A68B91398139A14988CE288B91398E9
:100BE000139A149A2F2F3E2FC901AC010DC0F8B8EB
:100BF0001398139AE8B81398139A2F5F3F4F621710
:100C00007307A8F74F5F5F4FA417B50710F098015F
:100C1000F6CF28960FB6F894DEBF0FBECDBFCF91AA
:100C2000DF911F910F91FF90EF900895EF92FF9247
:100C30000F931F93DF93CF93CDB7DEB728970FB6EF
:100C4000F894DEBF0FBECDBFF22F2983E32F3A8386
:100C50004B835C83362F6D83272F7E838F8398870A
:100C6000D8010B811C81E62EF72E6F8178851498B0
:100C70008AE288B91398139A149AE8B91398139AC8
:100C8000F8B91398139A18B91398139A08B91398C6
:100C9000139A14988BE288B91398139A149A28B966
:100CA0001398139A38B91398139A78B91398139A1A
:100CB00068B91398139A14988CE288B91398139A08
:100CC000149A2F2F3E2FC901AC0114C011968C919C
:100CD000119788B91398139A12968C91129788B924
:100CE00014961398139A2F5F3F4F6217730770F78C
:100CF0004F5F5F4F0417150710F09701F6CF289646
:100D00000FB6F894DEBF0FBECDBFCF91DF911F911C
:100D10000F91FF90EF9008950F931F93DF93CF9360
:100D2000CDB7DEB728970FB6F894DEBF0FBECDBFA4
:100D3000109239011092380110923B0110923A0141
:100D400020913301309134012150304080913501A0
:100D50009091360101971A821982422F3C832B838E
:100D60001E821D8298878F8300913E0110913F0162
:100D700029813A815C816D817E8198850E94A705D9
:100D800028960FB6F894DEBF0FBECDBFCF91DF918E
:100D90001F910F9108956F927F928F929F92AF92C1
:100DA000BF92CF92DF92EF92FF920F931F93CF9358
:100DB000DF93982F009138011091390124E0E22E41
:100DC000F12CE00EF11E60903A0170903B018052D0
:100DD0008F3508F09FC0E301279685E0989F90012A
:100DE00011242452304014988BE288B91398139A36
:100DF000149A78B81398139A68B81398139AD8B9B4
:100E00001398139AC8B91398139AC0903C01D090C4
:100E10003D01A0903E01B0903F01A8019AE2892EC9
:100E20008CE2982E36C0149888B81398139A149AA6
:100E300058B91398139A48B91398139A58B9139834
:100E4000139A48B91398139A149898B81398139A48
:100E5000149AF901B491B30191E014C0A92FAB2306
:100E600011F48B2D01C08D2D88B91398139AAA23E4
:100E700011F48A2D01C08C2D88B91398139A6F5FD5
:100E80007F4F990FC617D70748F72F5F3F4F4F5F28
:100E90005F4FE416F50638F614988AE288B913987D
:100EA000139A149A58B91398139A48B91398139A25
:100EB00058B91398139A48B91398139A14988CE256
:100EC00088B91398139A149AC30107C0B8B8139835
:100ED000139AA8B81398139A0196C817D907B0F7B0
:100EE00098012A5F3F4F3093390120933801809158
:100EF0003301909134012817390760F010923901BD
:100F00001092380188E090E0680E791E70923B01E3
:100F100060923A01DF91CF911F910F91FF90EF9076
:100F2000DF90CF90BF90AF909F908F907F906F9009
:100F300008951F93CF93DF93EC0110E003C00E944C
:100F4000CB061F5FFE01E10FF11D80818823B9F7F9
:100F5000DF91CF911F91089585B7806885BF85B7D0
:100F6000806885BF8FE781B98FEF87B90E94DC0366
:060F70000895F894FFCF84
:100F76000000013F00000000EF00002527051009D2
:100F86003A784D05180D383A1F001F1A180A0F0631
:100F96004587320A070207050000010000000A82A1
:100FA600270000F00040010000000000FFFF0000E5
:080FB60000000100030002002D
:00000001FF
