:100000000C942C010C9449010C9449010C94490165
:100010000C9449010C9449010C9449010C94280555
:100020000C9449010C9449010C9449010C94490128
:100030000C9449010C9449010C9449010C94340826
:100040000C9449010C9449010C94DD050C94490170
:100050000C9449010C9449010C9449010C944901F8
:100060000C9449010C9449010C9449010C944901E8
:100070000C9449010C9449010C94490100000000C2
:100080000000005F00000003000300143E143E1453
:10009000242A7F2A124333086661364955225000CC
:1000A00005030000001C2241000041221C0014082E
:1000B0003E081408083E08080050300000080808F0
:1000C0000808006060000020100804023E51494505
:1000D0003E0004027F0042615149462241494936AF
:1000E0001814127F1027454545393E4949493201C8
:1000F000017109073649494936264949493E0036C2
:100100003600000056360000081422410014141472
:100110001414004122140802015109063E415955A8
:100120005E7E0909097E7F494949363E41414122A7
:100130007F4141413E7F494949417F090909013ECB
:100140004141493A7F0808087F00417F4100304023
:1001500040403F7F081422417F404040407F020CD6
:10016000027F7F0204087F3E4141413E7F09090929
:10017000061E2121215E7F09090976264949493257
:1001800001017F01013F4040403F1F2040201F7F71
:100190002010207F41221C2241070870080761516E
:1001A000494543007F41000002040810200000413F
:1001B0007F0004020102044040404040000102046C
:1001C0000020545454787F444444383844444444D0
:1001D000384444447F385454541804047E050508B8
:1001E0005454543C7F0804047800447D400020406F
:1001F000443D007F1028440000417F40007C04788B
:1002000004787C0804047838444444387C1414147A
:1002100008081414147C007C080404485454542026
:1002200004043F44443C4040207C1C2040201C3CB3
:100230004030403C44281028440C5050503C44640A
:10024000544C44000836414100007F0000414136D3
:10025000080002010204020011241FBECFEFD0E10A
:10026000DEBFCDBF11E0A0E0B1E0EAE7F4E102C0FB
:1002700005900D92AE35B107D9F711E0AEE5B1E0CA
:1002800001C01D92A736B107E1F70E94A2050C94A8
:100290003B0A0C940000129888EE93E02CE231E0C7
:1002A000F9013197F1F70197D9F7129A88EE93E0A7
:1002B0002CE231E0F9013197F1F70197D9F7149A5F
:1002C000139A159A10981198169A149888E288B97A
:1002D0001398139A149A149881E188B91398139A71
:1002E000149A88E592E02CE231E0F9013197F1F7B8
:1002F0000197D9F714988BEC88B91398139A149A2C
:1003000081E088B91398139A149880EC88B91398EF
:10031000139A149A86E288B91398139A88E088B9D8
:100320001398139A149881EC88B91398139A149A15
:1003300080E188B91398139A149885EC88B91398BA
:10034000139A149A85E388B91398139A8EE388B99F
:100350001398139A149886E388B91398139A149AE9
:1003600088E488B91398139A149880EB88B9139885
:10037000139A149A8AE488B91398139A149881EB03
:1003800088B91398139A149A18B81398139A8BE192
:1003900088B91398139A149886EB88B91398139A0E
:1003A000149AEEE2F1E0819188B91398139A41E032
:1003B000E233F407C1F7149887EC88B91398139ABD
:1003C000149A85EB88B91398139A149886EF88B914
:1003D0001398139A149AEAE2F1E0819188B913987C
:1003E000139A81E0ED32F807C1F7149882EF88B9CB
:1003F0001398139A149A18B81398139A149886E2BB
:1004000088B91398139A149A81E088B91398139AAB
:1004100014988AE388B91398139A149A85E588B9D1
:100420001398139A149880EE88B91398139A149A13
:10043000EAE1F1E0819188B91398139A41E0E93239
:10044000F407C1F7149881EE88B91398139A149A97
:10045000EAE0F1E0819188B91398139A81E0E931DB
:10046000F807C1F714988AE288B91398139A149A76
:10047000E5E0F1E0819188B91398139A41E0E93001
:10048000F407C1F714988BE288B91398139A149A59
:10049000E0E0F1E0819188B91398139A81E0E430AB
:1004A000F807C1F7149884E388B91398139A149A3B
:1004B000149884EB88B91398139A149A18B813985F
:1004C000139A149887EB88B91398139A149A87E0B3
:1004D00088B91398139A14988CE288B91398139AD0
:1004E000149A20E030E010C018B81398139A18B886
:1004F0001398139A019641E080349407A9F72F5F6F
:100500003F4F203F310519F080E090E0EDCF149887
:1005100089E288B91398139A149A84EF91E02CE237
:1005200031E0F9013197F1F70197D9F7119A089560
:10053000982F80933B01149886E388B91398139AF7
:10054000149A992371F480EF90E09093380180938E
:10055000370180E491E090933A018093390188E477
:100560002FC0913071F480E491E090933801809332
:10057000370180EF90E090933A018093390188EE43
:100580001FC0923071F480EF90E090933801809317
:10059000370180E491E090933A018093390188E833
:1005A0000FC0933081F480E491E090933801809300
:1005B000370180EF90E090933A018093390188E20F
:1005C00088B91398139A14988AE288B91398139AE1
:1005D000149A18B81398139A18B81398139A80910C
:1005E000370190913801019798B901961398139AA1
:1005F000815088B91398139A14988BE288B913988C
:10060000139A149A18B81398139A18B81398139A3F
:100610008091390190913A01019798B90196139808
:10062000139A815088B91398139A0895EF92FF9204
:100630000F931F93DF93CF93CDB7DEB728970FB6F5
:10064000F894DEBF0FBECDBFF22F2983E32F3A838C
:100650004B835C83362F6D83272F7E838F83988710
:100660007801AB81BC81062F172F6F817885149894
:100670008AE288B91398139A149AE8B91398139ACE
:10068000F8B91398139AB8B91398139AA8B913988C
:10069000139A14988BE288B91398139A149A28B96C
:1006A0001398139A38B91398139A78B91398139A20
:1006B00068B91398139A14988CE288B91398139A0E
:1006C000149A2F2F3E2FC901AC010DC0F8B8139812
:1006D000139AE8B81398139A2F5F3F4F6217730766
:1006E000A8F74F5F5F4FA417B50710F09801F6CF3A
:1006F00028960FB6F894DEBF0FBECDBFCF91DF9125
:100700001F910F91FF90EF900895EF92FF920F933A
:100710001F93DF93CF93CDB7DEB728970FB6F8942A
:10072000DEBF0FBECDBFF22F2983E32F3A834B8369
:100730005C83362F6D83272F7E838F839887D80124
:100740000B811C81E62EF72E6F81788514988AE242
:1007500088B91398139A149AE8B91398139AF8B9A8
:100760001398139A18B91398139A08B91398139AEF
:1007700014988BE288B91398139A149A28B913988D
:10078000139A38B91398139A78B91398139A68B9C9
:100790001398139A14988CE288B91398139A149AA0
:1007A0002F2F3E2FC901AC0114C011968C911197C7
:1007B00088B91398139A12968C91129788B9149647
:1007C0001398139A2F5F3F4F6217730770F74F5FAD
:1007D0005F4F0417150710F09701F6CF28960FB654
:1007E000F894DEBF0FBECDBFCF91DF911F910F9167
:1007F000FF90EF9008950F931F93DF93CF93CDB7A2
:10080000DEB728970FB6F894DEBF0FBECDBF1092AB
:100810003D0110923C0110923F0110923E01209147
:100820003701309138012150304080913901909149
:100830003A0101971A821982422F3C832B831E8230
:100840001D8298878F830091420110914301298175
:100850003A815C816D817E8198850E94160328967D
:100860000FB6F894DEBF0FBECDBFCF91DF911F91C1
:100870000F9108956F927F928F929F92AF92BF9245
:10088000CF92DF92EF92FF920F931F93CF93DF935C
:10089000982F00913C0110913D0124E0E22EF12CB3
:1008A000E00EF11E60903E0170903F0180528F3546
:1008B00008F09FC0E301279685E0989F90011124DE
:1008C0002452304014988BE288B91398139A149AE2
:1008D00078B81398139A68B81398139AD8B91398DC
:1008E000139AC8B91398139AC0904001D09041014F
:1008F000A0904201B0904301A8019AE2892E8CE2B7
:10090000982E36C0149888B81398139A149A58B928
:100910001398139A48B91398139A58B91398139ABD
:1009200048B91398139A149898B81398139A149A6C
:10093000F901B491B30191E014C0A92FAB2311F4D4
:100940008B2D01C08D2D88B91398139AAA2311F409
:100950008A2D01C08C2D88B91398139A6F5F7F4F31
:10096000990FC617D70748F72F5F3F4F4F5F5F4F6D
:10097000E416F50638F614988AE288B91398139AA3
:10098000149A58B91398139A48B91398139A58B9E6
:100990001398139A48B91398139A14988CE288B94B
:1009A0001398139A149AC30107C0B8B81398139AEE
:1009B000A8B81398139A0196C817D907B0F79801E9
:1009C0002A5F3F4F30933D0120933C0180913701D6
:1009D000909138012817390760F010923D0110926C
:1009E0003C0188E090E0680E791E70923F016092B1
:1009F0003E01DF91CF911F910F91FF90EF90DF901B
:100A0000CF90BF90AF909F908F907F906F90089500
:100A10001F93CF93DF93EC0110E003C00E943A04D0
:100A20001F5FFE01E10FF11D80818823B9F7DF917F
:100A3000CF911F91089585B7806885BF85B780687D
:100A400085BF8FE781B98FEF87B90E944B01089569
:100A50001F920F920FB60F9211242F933F938F93F3
:100A60009F93AF93BF93EF93FF9389B1282F30E00B
:100A700023703070E0916301F0916401D901AA0FF5
:100A8000BB1FAA5ABE4FEE0FFF1FEA5AFE4F0D9032
:100A9000BC91A02D80819181A81BB90B8FEFAF3F36
:100AA000B807A9F08FEFAF3FB80709F024F4AD5FA6
:100AB000BF4FB1F406C0A130B10519F0139781F40E
:100AC00006C08091440190914501039605C0809134
:100AD000440190914501039790934501809344010F
:100AE000809144019091450197FF05C01092450106
:100AF000109244010DC080914401909145018D38C0
:100B0000910534F08CE890E0909345018093440186
:100B10003093640120936301809165019091660197
:100B200001969093660180936501FF91EF91BF91CB
:100B3000AF919F918F913F912F910F900FBE0F908A
:100B40001F9018950E941B0580E00E9498028AB1B0
:100B50008C7F8AB98BB183608BB980918100816071
:100B60008093810085B5846085BD80916F00816030
:100B700080936F0080916E00816080936E0083B7D8
:100B8000817F846083BF89B190E08370907090937F
:100B900064018093630183E0809373008091680017
:100BA000886080936800789401C088958091600186
:100BB0008823D9F380E090E008951F920F920FB63A
:100BC0000F9211242F933F934F935F936F937F93D3
:100BD0008F939F93AF93BF93EF93FF9380916101A6
:100BE000909162018436910508F18436910521F5D2
:100BF00080916501909166010E949D090E9498096B
:100C000060EF70E00E9420099093470180934601B5
:100C10000E94980960E471E00E94200990934901C4
:100C200080934801809161019091620101969093B7
:100C30006201809361019FC08091460190914701BC
:100C400020914C0130914D01820F931F90934701E9
:100C500080934601809148019091490140914A0159
:100C600050914B01840F951F909349018093480147
:100C7000809146019091470197FF0DC088279927E1
:100C8000821B930B90934D0180934C01109247016E
:100C90001092460115C08091460190914701893E0E
:100CA000910574F088279927821B930B90934D012F
:100CB00080934C0188EE90E0909347018093460129
:100CC000809148019091490197FF10C0882799278A
:100CD000841B950B90934B0180934A01109249011C
:100CE0001092480181E08093600115C08091480115
:100CF000909149018953914074F088279927841B6A
:100D0000950B90934B0180934A0188E391E0909377
:100D100049018093480180914401909145012091BF
:100D20004601309147018D599F4F821793071CF15F
:100D300080914601909147012091440130914501F5
:100D4000079682179307BCF0209148013091490122
:100D500080915E0190915F0106962817390759F43A
:100D600080914A0190914B01909581959F4F90936E
:100D70004B0180934A01FF91EF91BF91AF919F91F9
:100D80008F917F916F915F914F913F912F910F9034
:100D90000FBE0F901F9018952F923F924F925F9227
:100DA0006F927F928F929F92AF92BF92CF92DF927B
:100DB000EF92FF920F931F93DF93CF93CDB7DEB7E0
:100DC0006C970FB6F894DEBF0FBECDBF29873A8768
:100DD0004B875C876D877E878F87988BA98ABA8AB5
:100DE000CB8ADC8AED8AFE8A0F8B188F9C8E8B8EC5
:100DF0006B847C848F8598899A8F898F29843A8423
:100E0000AD84BE84CB88DC884F88588C89889A88CA
:100E1000ED88FE8891EF6916710408F00CC1898D88
:100E20009A8D21E08134920708F005C1C214D304E1
:100E300090F04A145B0478F06814790460F08E1521
:100E40009F0548F081EFC816D10428F491E44916B3
:100E500091E0590638F14C2DDC8ACB8A588E4F8AA6
:100E6000282D9A8A898A6E2DFE8AED8A3A895C89B4
:100E70007E89842D988D00E010E00E941603462D97
:100E80007C866B86898D9A8D988B8F87222D3A86EA
:100E900029866A2DBE86AD863A855C857E85898DDC
:100EA0009889C5C02814390481F182149304A8F4E8
:100EB000282D9A828982C1010197482F9C838B83B8
:100EC0006E2DFE82ED8258864F823A815C817E8152
:100ED000842D988500E010E016C0222D3A822982E8
:100EE000C4010197482F9C838B836A2DBE82AD82FB
:100EF000898D9A8D98878F833A815C817E81898DD7
:100F000098850B8D1C8D0E9416036C147D0481F155
:100F10006C147D04A8F4C3010196282F9A83898359
:100F20004C2DDC82CB826E2DFE82ED8258864F8264
:100F30003A815C817E81842D988500E010E016C0A6
:100F4000C6010196282F9A838983462D7C826B8265
:100F50006A2DBE82AD82898D9A8D98878F833A8162
:100F60005C817E81898D98850B8D1C8D0E94160376
:100F7000AE14BF0461F1EA14FB04A0F4282D9A8298
:100F800089824C2DDC82CB826E2DFE82ED82C501E2
:100F9000019798878F833A815C817E81988500E0F4
:100FA00010E013C0222D3A822982462D7C826B826A
:100FB0006A2DBE82AD82C701019798878F833A81DF
:100FC0005C817E8198850B8D1C8D0E941603898D16
:100FD0009A8D8415950579F184159505A0F4282D31
:100FE0009A8289824C2DDC82CB820196682F9E8367
:100FF0008D8358864F823A815C817E81842D9885CD
:1010000000E010E016C0222D3A822982462D7C8213
:101010006B82C2010196682F9E838D83898D9A8D84
:1010200098878F833A815C817E81898D98850B8D2D
:101030001C8D0E9416036C960FB6F894DEBF0FBE8F
:10104000CDBFCF91DF911F910F91FF90EF90DF9077
:10105000CF90BF90AF909F908F907F906F905F9058
:101060004F903F902F9008951F920F920FB60F92BE
:1010700011248F929F92AF92BF92CF92DF92EF9204
:10108000FF920F931F932F933F934F935F936F9311
:101090007F938F939F93AF93BF93EF93FF93DF93D0
:1010A000CF93CDB7DEB7A097DEBFCDBF409144014F
:1010B00050914501809144019091450160915E01FC
:1010C00070915F0120915E0130915F015A834983E5
:1010D0008C599F4F9C838B837E836D832B5F3F4F07
:1010E00038872F83809154019091550120915201AE
:1010F000309153019A8789878C599F4F9C878B87A2
:101100003E872D872B5F3F4F388B2F8740914601BD
:1011100050914701809146019091470160914801AB
:101120007091490120914801309149015A8B498BB6
:1011300008969C8B8B8B7E8B6D8B285F3F4F388FF7
:101140002F8B809150019091510120914E0130914F
:101150004F019A8F898F08969C8F8B8F3E8F2D8F92
:10116000285F3F4F38A32F8F29813A814B815C81C3
:101170006D817E818F819885A984BA84CB84DC843B
:10118000ED84FE840F851889F0E68F2EFAEE9F2EEF
:101190000E94CC0629893A894B895C896D897E89B0
:1011A0008F89988DA98CBA8CCB8CDC8CED8CFE8CC5
:1011B0000F8D18A1E0EE8E2EE7E09E2E0E94CC0649
:1011C0008091440190914501909355018093540181
:1011D00080915E0190915F01909353018093520141
:1011E0008091460190914701909351018093500165
:1011F000809148019091490190934F0180934E0155
:10120000A096DEBFCDBFCF91DF91FF91EF91BF914F
:10121000AF919F918F917F916F915F914F913F918E
:101220002F911F910F91FF90EF90DF90CF90BF9083
:10123000AF909F908F900F900FBE0F901F901895BA
:1012400097FB092E07260AD077FD04D00CD006D0D4
:1012500000201AF4709561957F4F0895F6F79095E8
:1012600081959F4F0895AA1BBB1B51E107C0AA1F80
:10127000BB1FA617B70710F0A61BB70B881F991F37
:101280005A95A9F780959095BC01CD010895A0E0ED
:10129000B0E0EDE4F9E00C94EA09EC01A880B98033
:1012A000CA80DB80A114B104C104D10441F484E2FA
:1012B000A82E89EDB82E8BE5C82E87E0D82EC60162
:1012C000B5012DE133EF41E050E00E94C70927EA64
:1012D00031E440E050E00E94A8097B018C01C60186
:1012E000B5012DE133EF41E050E00E94C709CA018A
:1012F000B9012CEE34EF4FEF5FEF0E94A8096E0D9D
:101300007F1D801F911F97FF04C061507040804077
:101310009048688379838A839B839B013F77C901C7
:10132000CDB7DEB7EAE00C94060A0E94470908959B
:1013300083E391E00E9447090895A0E0B0E0809324
:10134000330190933401A0933501B0933601089591
:10135000629FD001739FF001829FE00DF11D649F99
:10136000E00DF11D929FF00D839FF00D749FF00D25
:10137000659FF00D9927729FB00DE11DF91F639FC6
:10138000B00DE11DF91FBD01CF011124089597FB98
:10139000092E05260ED057FD04D04BD00AD0001CD4
:1013A00038F450954095309521953F4F4F4F5F4F02
:1013B0000895F6F790958095709561957F4F8F4FC2
:1013C0009F4F08952F923F924F925F926F927F921C
:1013D0008F929F92AF92BF92CF92DF92EF92FF9245
:1013E0000F931F93CF93DF93CDB7DEB7CA1BDB0BF1
:1013F0000FB6F894DEBF0FBECDBF09942A88398896
:1014000048885F846E847D848C849B84AA84B9849C
:10141000C884DF80EE80FD800C811B81AA81B981A8
:10142000CE0FD11D0FB6F894DEBF0FBECDBFED01BC
:101430000895A1E21A2EAA1BBB1BFD010DC0AA1F15
:10144000BB1FEE1FFF1FA217B307E407F50720F02D
:10145000A21BB30BE40BF50B661F771F881F991FA8
:101460001A9469F760957095809590959B01AC01F1
:0A147000BD01CF010895F894FFCFED
:10147A000000013F00000000EF00002527051009C9
:10148A003A784D05180D383A1F001F1A180A0F0628
:10149A004587320A070207050000010000000A8298
:1014AA0027000001000000F00040010000000000D9
:1014BA00FFFF00004600FFFFFFFF01000100FFFFE2
:0E14CA00FFFFFFFFFFFF000001000300020014
:00000001FF
